{
  "contractName": "HomeInsurance",
  "abi": [
    {
      "constant": false,
      "inputs": [
        {
          "name": "value",
          "type": "uint256"
        },
        {
          "name": "owner",
          "type": "address"
        }
      ],
      "name": "requestInsurance",
      "outputs": [],
      "payable": false,
      "stateMutability": "nonpayable",
      "type": "function"
    },
    {
      "constant": false,
      "inputs": [],
      "name": "signInsuranceRequest",
      "outputs": [],
      "payable": false,
      "stateMutability": "nonpayable",
      "type": "function"
    },
    {
      "constant": false,
      "inputs": [],
      "name": "absoluteLossRequest",
      "outputs": [],
      "payable": false,
      "stateMutability": "nonpayable",
      "type": "function"
    },
    {
      "constant": false,
      "inputs": [],
      "name": "signAbsoluteLossRequest",
      "outputs": [],
      "payable": false,
      "stateMutability": "nonpayable",
      "type": "function"
    },
    {
      "constant": true,
      "inputs": [],
      "name": "listInsuranceRequests",
      "outputs": [
        {
          "name": "",
          "type": "uint256[]"
        }
      ],
      "payable": false,
      "stateMutability": "view",
      "type": "function"
    }
  ],
  "bytecode": "0x608060405234801561001057600080fd5b50610380806100206000396000f30060806040526004361061006d576000357c0100000000000000000000000000000000000000000000000000000000900463ffffffff168063226d019114610072578063ad1dd4dc14610089578063b8ebb34f146100f5578063c0fd692e1461010c578063c18c6aaa14610123575b600080fd5b34801561007e57600080fd5b50610087610170565b005b34801561009557600080fd5b5061009e610172565b6040518080602001828103825283818151815260200191508051906020019060200280838360005b838110156100e15780820151818401526020810190506100c6565b505050509050019250505060405180910390f35b34801561010157600080fd5b5061010a610238565b005b34801561011857600080fd5b5061012161023a565b005b34801561012f57600080fd5b5061016e60048036038101908080359060200190929190803573ffffffffffffffffffffffffffffffffffffffff16906020019092919050505061023c565b005b565b6060600080600090505b6002805490508110156101e1578160028281548110151561019957fe5b9060005260206000209060030201600001549080600181540180825580915050906001820390600052602060002001600090919290919091505550808060010191505061017c565b8180548060200260200160405190810160405280929190818152602001828054801561022c57602002820191906000526020600020905b815481526020019060010190808311610218575b50505050509250505090565b565b565b61024461031c565b60606040519081016040528060005481526020018481526020018373ffffffffffffffffffffffffffffffffffffffff16815250905060028190806001815401808255809150509060018203906000526020600020906003020160009091929091909150600082015181600001556020820151816001015560408201518160020160006101000a81548173ffffffffffffffffffffffffffffffffffffffff021916908373ffffffffffffffffffffffffffffffffffffffff1602179055505050506000808154809291906001019190505550505050565b6060604051908101604052806000815260200160008152602001600073ffffffffffffffffffffffffffffffffffffffff16815250905600a165627a7a72305820ce3f99b315efdefa72d0660e3f94d4a63be38e9ad4c44a10c2aa94581f00eef70029",
  "source": "pragma solidity ^0.4.23;\n\ncontract HomeInsurance {\n  struct Home {\n    uint id;\n    uint value;\n    address owner;\n  }\n\n  uint currentId;\n  Home[] homesInsured;\n  Home[] homeInsuranceRequests;\n\n  \n  function requestInsurance(uint value, address owner) public {\n    Home memory newHome = Home(currentId, value, owner);\n    homeInsuranceRequests.push(newHome);\n    currentId++;\n  }\n\n  function signInsuranceRequest() public {\n\n  }\n\n  function absoluteLossRequest() public {\n\n  }\n\n  function signAbsoluteLossRequest() public {\n    \n  }\n\n  function listInsuranceRequests() public constant returns (uint[]) {\n    uint[] storage ids;\n    for(uint i = 0; i < homeInsuranceRequests.length; i++) {\n      ids.push(homeInsuranceRequests[i].id);\n    } \n    return ids;\n  }\n}\n",
  "sourcePath": "/home/grant/sandbox/playground-solidity/home-insurance/contracts/HomeInsurance.sol",
  "compiler": {
    "name": "solc",
    "version": "0.4.24+commit.e67f0147.Emscripten.clang"
  },
  "schemaVersion": "2.0.0",
  "updatedAt": "2018-06-30T19:35:21.264Z"
}