{
  "contractName": "HomeInsurance",
  "abi": [
    {
      "constant": false,
      "inputs": [
        {
          "name": "value",
          "type": "uint256"
        },
        {
          "name": "owner",
          "type": "address"
        }
      ],
      "name": "requestInsurance",
      "outputs": [],
      "payable": false,
      "stateMutability": "nonpayable",
      "type": "function"
    },
    {
      "constant": false,
      "inputs": [],
      "name": "signInsuranceRequest",
      "outputs": [],
      "payable": false,
      "stateMutability": "nonpayable",
      "type": "function"
    },
    {
      "constant": false,
      "inputs": [],
      "name": "absoluteLossRequest",
      "outputs": [],
      "payable": false,
      "stateMutability": "nonpayable",
      "type": "function"
    },
    {
      "constant": false,
      "inputs": [],
      "name": "signAbsoluteLossRequest",
      "outputs": [],
      "payable": false,
      "stateMutability": "nonpayable",
      "type": "function"
    },
    {
      "constant": true,
      "inputs": [],
      "name": "listInsuranceRequests",
      "outputs": [
        {
          "name": "",
          "type": "uint256[]"
        }
      ],
      "payable": false,
      "stateMutability": "view",
      "type": "function"
    }
  ],
  "bytecode": "0x608060405234801561001057600080fd5b50610340806100206000396000f30060806040526004361061006d576000357c0100000000000000000000000000000000000000000000000000000000900463ffffffff168063226d019114610072578063ad1dd4dc14610089578063b8ebb34f146100f5578063c0fd692e1461010c578063c18c6aaa14610123575b600080fd5b34801561007e57600080fd5b50610087610170565b005b34801561009557600080fd5b5061009e610172565b6040518080602001828103825283818151815260200191508051906020019060200280838360005b838110156100e15780820151818401526020810190506100c6565b505050509050019250505060405180910390f35b34801561010157600080fd5b5061010a6101ca565b005b34801561011857600080fd5b506101216101cc565b005b34801561012f57600080fd5b5061016e60048036038101908080359060200190929190803573ffffffffffffffffffffffffffffffffffffffff1690602001909291905050506101ce565b005b565b606060038054806020026020016040519081016040528092919081815260200182805480156101c057602002820191906000526020600020905b8154815260200190600101908083116101ac575b5050505050905090565b565b565b6101d66102dc565b60606040519081016040528060005481526020018481526020018373ffffffffffffffffffffffffffffffffffffffff16815250905060028190806001815401808255809150509060018203906000526020600020906003020160009091929091909150600082015181600001556020820151816001015560408201518160020160006101000a81548173ffffffffffffffffffffffffffffffffffffffff021916908373ffffffffffffffffffffffffffffffffffffffff160217905550505050600360005490806001815401808255809150509060018203906000526020600020016000909192909190915055506000808154809291906001019190505550505050565b6060604051908101604052806000815260200160008152602001600073ffffffffffffffffffffffffffffffffffffffff16815250905600a165627a7a723058201d6b0365eb8290e69af1c72644252dafe8dc6b2b2d9969028dca2645e142d9f10029",
  "source": "pragma solidity ^0.4.23;\n\ncontract HomeInsurance {\n  struct Home {\n    uint id;\n    uint value;\n    address owner;\n  }\n\n  uint currentId;\n  Home[] homesInsured;\n  Home[] homeInsuranceRequests;\n  uint[] homeInsuranceRequestsIds;\n\n  \n  function requestInsurance(uint value, address owner) public {\n    Home memory newHome = Home(currentId, value, owner);\n    homeInsuranceRequests.push(newHome);\n    homeInsuranceRequestsIds.push(currentId);\n    currentId++;\n  }\n\n  function signInsuranceRequest() public {\n\n  }\n\n  function absoluteLossRequest() public {\n\n  }\n\n  function signAbsoluteLossRequest() public {\n    \n  }\n\n  function listInsuranceRequests() public constant returns (uint[]) {\n    return homeInsuranceRequestsIds;\n  }\n}\n",
  "sourcePath": "/home/grant/sandbox/playground-solidity/home-insurance/contracts/HomeInsurance.sol",
  "compiler": {
    "name": "solc",
    "version": "0.4.24+commit.e67f0147.Emscripten.clang"
  },
  "schemaVersion": "2.0.0",
  "updatedAt": "2018-07-03T02:29:36.010Z"
}