{
  "contractName": "HomeInsurance",
  "abi": [
    {
      "constant": false,
      "inputs": [
        {
          "name": "value",
          "type": "uint256"
        },
        {
          "name": "owner",
          "type": "address"
        }
      ],
      "name": "requestInsurance",
      "outputs": [],
      "payable": false,
      "stateMutability": "nonpayable",
      "type": "function"
    },
    {
      "constant": false,
      "inputs": [],
      "name": "signInsuranceRequest",
      "outputs": [],
      "payable": false,
      "stateMutability": "nonpayable",
      "type": "function"
    },
    {
      "constant": false,
      "inputs": [],
      "name": "absoluteLossRequest",
      "outputs": [],
      "payable": false,
      "stateMutability": "nonpayable",
      "type": "function"
    },
    {
      "constant": false,
      "inputs": [],
      "name": "signAbsoluteLossRequest",
      "outputs": [],
      "payable": false,
      "stateMutability": "nonpayable",
      "type": "function"
    }
  ],
  "bytecode": "0x608060405234801561001057600080fd5b50610243806100206000396000f300608060405260043610610062576000357c0100000000000000000000000000000000000000000000000000000000900463ffffffff168063226d019114610067578063b8ebb34f1461007e578063c0fd692e14610095578063c18c6aaa146100ac575b600080fd5b34801561007357600080fd5b5061007c6100f9565b005b34801561008a57600080fd5b506100936100fb565b005b3480156100a157600080fd5b506100aa6100fd565b005b3480156100b857600080fd5b506100f760048036038101908080359060200190929190803573ffffffffffffffffffffffffffffffffffffffff1690602001909291905050506100ff565b005b565b565b565b6101076101df565b60606040519081016040528060005481526020018481526020018373ffffffffffffffffffffffffffffffffffffffff16815250905060028190806001815401808255809150509060018203906000526020600020906003020160009091929091909150600082015181600001556020820151816001015560408201518160020160006101000a81548173ffffffffffffffffffffffffffffffffffffffff021916908373ffffffffffffffffffffffffffffffffffffffff1602179055505050506000808154809291906001019190505550505050565b6060604051908101604052806000815260200160008152602001600073ffffffffffffffffffffffffffffffffffffffff16815250905600a165627a7a72305820b0bac9447aac878d3df4f7205a4dafcea237830f8ecc21c00a4885144cb30ee90029",
  "source": "pragma solidity ^0.4.23;\n\ncontract HomeInsurance {\n  struct Home {\n    uint id;\n    uint value;\n    address owner;\n  }\n\n  uint currentId;\n  Home[] homesInsured;\n  Home[] homeInsuranceRequests;\n\n  \n  function requestInsurance(uint value, address owner) public {\n    Home memory newHome = Home(currentId, value, owner);\n    homeInsuranceRequests.push(newHome);\n    currentId++;\n  }\n\n  function signInsuranceRequest() public {\n\n  }\n\n  function absoluteLossRequest() public {\n\n  }\n\n  function signAbsoluteLossRequest() public {\n    \n  }\n}\n",
  "sourcePath": "/home/grant/sandbox/playground-solidity/home-insurance/contracts/HomeInsurance.sol",
  "compiler": {
    "name": "solc",
    "version": "0.4.24+commit.e67f0147.Emscripten.clang"
  },
  "schemaVersion": "2.0.0",
  "updatedAt": "2018-06-24T16:27:43.915Z"
}